:03000000020F46A6
:0C0F4600787FE4F6D8FD75813A020F8D2B
:100C50005072657373204120666F72204163636F29
:100C6000756E7420646973706C617920616E6420A4
:100C70005720666F72207769746864726177696E55
:100C80006720636173680D0A0048656C6C6F2C20E7
:100C9000506C6561736520656E7465722041636395
:100CA0006F756E74204E756D6265720D0A0041633A
:100CB000636F756E7420486F6C6465723A20536977
:100CC00074610D0A004163636F756E742042616C3C
:100CD000616E63653A20000D0A004163636F756EB3
:100CE0007420486F6C6465723A20476974610D0A1C
:100CF000004E6F2073756368206163636F756E7457
:100D00002C20706C6561736520656E746572207649
:100D1000616C69642064657461696C730D0A0057C5
:100D2000697468647261772073746174652C2065DE
:100D30006E746572206163636F756E74206E756D7D
:100D40006265720D0A00456E74657220416D6F75A3
:100D50006E742C20696E2068756E64726564730D04
:100D60000A00496E73756666696369656E7420462C
:100D7000756E64730D0A0052656D61696E696E6708
:100D80002042616C616E63653A2000353030204E40
:100D90006F7465733A20002C20313030204E6F7410
:100DA00065733A2000496E76616C696420416D6F0D
:060DB000756E740D0A00CF
:10103B00C101C100050D3130303030050831303081
:10104B0030300512000000000002190000021700EA
:08105B0000051B00000000006D
:10106400758920758DF3438780759850D28ED2ACE4
:03107400D2AF22D6
:100EA0008E318F328B338A3489357C277D10120E38
:100EB00015EF2430120DCFAE31AF327C277D1012EA
:100EC0000E157E037FE8CFCDCFCECCCE120E15EF20
:100ED0002430AB33AA34A935900001120DE1AE31B4
:100EE000AF327C037DE8120E157E007F64CFCDCF3C
:100EF000CECCCE120E15EF2430AB33AA34A93590E8
:100F00000002120DE1AE31AF327C007D64120E158D
:100F10007E007F0ACFCDCFCECCCE120E15EF24307F
:100F2000AB33AA34A935900003120DE1AE31AF32D4
:100F30007C007D0A120E15ED2430AB33AA34A9359E
:060F4000900004020DE127
:100FD2008E368F378B388A39893A7C007D0A120E19
:100FE200157E007F0ACFCDCFCECCCE120E15EF24C8
:100FF20030120DCFAE36AF377C007D0A120E15EDE2
:0E1002002430AB38AA39A93A900001020DE162
:07108700740D2526F8E6FFB9
:08108E008F993001FDC201221F
:061010007BFF7A0C79C59C
:101016008B318A328933AB31AA32A933120DB660CD
:10102600130533E5337002053214F9120DB6FF12BB
:05103600108E80E22293
:09109600E4FF3000FDC200AF9937
:01109F00222E
:0300230002107751
:10107700309905C299D20132309804C298D2003211
:030800001210646F
:10080300E4F521F522F523F524F527F528F529F557
:100813002AF52BF52CF52DF52EF52FF5307BFF7AE8
:100823000C79501210161210968F21E521B4410451
:100833007F0180027F00E521B461047E0180027E96
:1008430000EE4F607C7BFF7A0C7989121016121030
:10085300968F22E522643170277BFF7A0C79AE12E2
:100863001016121010E4F525F5261210870526E55B
:100873002670020525C39405E525940040EC802DE0
:10088300E5226432702F7BFF7A0C79DA121016128C
:100893001010E4F525F52674081210890526E526BF
:1008A30070020525C39405E525940040EA7BFF7A91
:1008B3000C79D780067BFF7A0C79F11210160208A7
:1008C30003E521B457047F0180027F00E521B4775B
:1008D300047E0180027E00EE4F70030208037BFF5B
:1008E3007A0D791F1210161210968F22E522B43258
:1008F300047F0180027F00E522B431047E0180027F
:100903007E00EE4F7003020BECE522643170357B01
:10091300FF7A0C79AE121016121010E4F525F526A5
:10092300121087AF26740D2FF8E6FE74122FF8A667
:10093300060526E52670020525C39405E5259400E2
:1009430040DE80357BFF7A0C79DA12101612101014
:10095300E4F525F5267408121089AF2674082FF8DC
:10096300E6FE74122FF8A6060526E5267002052575
:10097300C39405E525940040DC7BFF7A0C79D712FC
:1009830010167BFF7A0D79461210161210968F23DC
:100993001210968F24AF237E00C3EF94307480949B
:1009A300805003020BE4D3EF9439748094804003A6
:1009B300020BE4AF24C3EF9430748094805003029D
:1009C3000BE4D3EF9439748094804003020BE4AFBB
:1009D30013EF3395E0FED3E5239FEE6480F8748034
:1009E30098400FAF12EF3395E0FEEF64304E700284
:1009F3008027E5136523702AAF14EF3395E0FED308
:100A0300E5249FEE6480F87480984016AF12EF33AC
:100A130095E0FEEF64304E70097BFF7A0D79620238
:100A23000BF2AF12EF3395E0FEEF24D0FFEE34FF6D
:100A3300FE7C277D10120E03EF2528F528EE3527BF
:100A4300F527AF13EF3395E0FEEF24D0FFEE34FF2D
:100A5300FE7C037DE8120E03EF2528F528EE3527EB
:100A6300F527AF14EF3395E0FEEF24D0FFEE34FF0C
:100A7300FE7C007D64120E03EF2528F528EE352752
:100A8300F527AF15EF3395E0FEEF24D0FFEE34FFEB
:100A9300FE7D0A120E03EF2528F528EE3527F527EC
:100AA300AF16EF3395E0FEEF24D0FFEE34FFFEEFF9
:100AB3002528F528EE3527F527E52424D0FFE4344F
:100AC300FFFE7D64120E03AA06AB07E52324D0FFC5
:100AD300E434FFFE7C037DE8120E03EF2BF52AEED0
:100AE3003AF529C3E528952AF52CE5279529F52B11
:100AF3007BFF7A0D79771210167B007A007912AF9B
:100B03002CAE2B120EA0E4F525F5267412121089D3
:100B13000526E52670020525C39405E525940040C6
:100B2300EA7BFF7A0C79D71210167BFF7A0D798B4B
:100B3300121016E52424D0FBE434FFFA7C007D0573
:100B4300AF03FE120E6AAC06AD07E52324D0FFE423
:100B530034FFFEEF25E0FFEE33FEED2FF52EEC3EE6
:100B6300F52D7C007D05AF03AE02120E158C2F8D83
:100B730030AE2DAF2E7C007D0A120E15EF2430F51A
:100B830019AE2DAF2E7C007D0A120E15ED2430F523
:100B93001A751730E5302430F518E4F525F5267479
:100BA300191210890526E52670020525C39402E56E
:100BB30025940040EA7BFF7A0D7997121016E4F52D
:100BC30025F52674171210890526E52670020525DA
:100BD300C39402E525940040EA7BFF7A0C79D78021
:100BE3000E7BFF7A0D79A580067BFF7A0C79F112D3
:100BF3001016E522B4312BE4F525F526C3E526943A
:100C030005E52594004003020803AF2674122FF86C
:100C1300E6FE740D2FF8A6060526E52670DE0525EB
:100C230080DAE4F525F526C3E5269405E525940049
:100C33004003020803AF2674122FF8E6FE74082F50
:0D0C4300F8A6060526E52670DE052580DAF8
:100F5200020800E493A3F8E493A34003F68001F2AD
:100F620008DFF48029E493A3F85407240CC8C333A0
:100F7200C4540F4420C8834004F456800146F6DF6F
:100F8200E4800B010204081020408090103BE47EB4
:100F9200019360BCA3FF543F30E509541FFEE49364
:100FA200A360010ECF54C025E060A840B8E493A32B
:100FB200FAE493A3F8E493A3C8C582C8CAC583CA56
:100FC200F0A3C8C582C8CAC583CADFE9DEE780BE0E
:01106300008C
:100DB600BB010689828A83E0225002E722BBFE023B
:090DC600E32289828A83E493226E
:100DCF00BB010689828A83F0225002F722BBFE0103
:020DDF00F322FD
:100DE100F8BB010DE58229F582E5833AF583E8F048
:100DF100225006E92582C8F622BBFE05E92582C8F4
:020E0100F222DB
:100E0300EF8DF0A4A8F0CF8CF0A428CE8DF0A42E03
:020E1300FE22BD
:100E1500BC000BBE0029EF8DF084FFADF022E4CCC1
:100E2500F875F008EF2FFFEE33FEEC33FCEE9DEC8A
:100E3500984005FCEE9DFE0FD5F0E9E4CEFD22EDD0
:100E4500F8F5F0EE8420D21CFEADF075F008EF2F1A
:100E5500FFED33FD4007985006D5F0F222C398FD0B
:050E65000FD5F0EA22A8
:100E6A00C2D5EC30E709B2D5E4C39DFDE49CFCEEA3
:100E7A0030E715B2D5E4C39FFFE49EFE120E15C3F8
:100E8A00E49DFDE49CFC8003120E1530D507C3E4F3
:060E9A009FFFE49EFE2212
:00000001FF
