:03000000020200F9
:03000B00020030C0
:03001B00020033AD
:10003000C28C32C28E0B758D00758B01D28E32123E
:1000400000FA0200451202A51202A5758D00758BFB
:10005000017B00759011D28E3090FDC28EC2940249
:100060000062E58D030303541FF552EB75F021A4E4
:1000700085F0502552F551E5503400F5501200B38B
:100080001200CC1200E5E5602430F560E561243013
:10009000F561E5622430F562E5632430F563120111
:1000A000151202A51202A51202A51202A51202A59E
:1000B00002003F7800C3E55194E8FAE5509403400C
:1000C00008F5508A51080200B58860227800C3E51F
:1000D000519464FAE55094004008F5508A510802A2
:1000E00000CE8861227800C3E551940A4006F5519C
:1000F000080200E78862855163225183748051555C
:1001000051839003005175518374C05155518390B0
:1001100003115175225183748051555183900322EC
:100120005175518374C05155518390034851755195
:10013000835183E56051645183E56151645183E5E6
:100140006251645183E5635164518390033F51755B
:03015000518322B6
:1002000075A000759000758911D2AFD2A9D2AB51FB
:10021000835183511802003F75A038C280C281D239
:10022000825183C282518375A00CC280C281D28266
:100230005183C282518375A001C280C281D2825192
:1002400083C282518375A006C280C281D28251834B
:10025000C282518322F5A0C280C281D2825183C260
:1002600082518322F5A0D280C281D2825183C28280
:100270005183518322C0E0E49360055164A380F769
:10028000D0E022C000C001780179FFD9FED8FAD0B1
:1002900001D00022308C0D80FB758C3C758AB0D269
:1002A0008C020294227829D801221202990202A714
:10030000202020546F67676C6520535731202020D0
:100310000020206966204C454420676C6F7773206D
:10032000200020205265616374696F6E2054696DEE
:10033000652000436F756E742069732000200020D3
:0D0340006D732020202020002020202000B0
:00000001FF
