:03000000020236C3
:10010000C00078C83116D8FCD00022C00078643115
:1001100016D8FCD00022C00078043121D8FCD000D1
:1001200022C00078F4D8FED000227431758DB175EC
:100130008BE0D28E2214C28F758DB1758BE0D28E7A
:100140002212012A758AB9758CEFD28C308DFDC2CE
:100150008DC28CB280308F0312013570E77580003C
:1001600012010B2212012A758A88758CF1D28C300B
:100170008DFDC28DC28CB280308F0312013570E7C5
:1001800075800012010B2212012A758AFA758CF211
:10019000D28C308DFDC28DC28CB280308F031201A3
:1001A0003570E775800012010B2212012A758ACB87
:1001B000758CF3D28C308DFDC28DC28CB280308FA5
:1001C0000312013570E775800012010B2212012A1B
:1001D000758A26758CF5D28C308DFDC28DC28CB29D
:1001E00080308F0312013570E775800012010B22F9
:1001F00012012A758A3C758CF6D28C308DFDC28D29
:10020000C28CB280308F0312013570E77580001206
:10021000010B2212012A758A52758CF7D28C308D0F
:10022000FDC28DC28CB280308F0312013570E7752C
:10023000800012010B227580007589111201411294
:1002400001411201641201411201AA120187120137
:10025000411201411201641201411201CD1201AAA1
:090260001201411201411201F0EA
:100269001201CD1201AA1201871201641201F012C2
:1002790001F01201CD1201AA1201CD1201AA120137
:060289000002023C80FEB1
:00000001FF
